:100000000C9463000C948B000C948B000C948B006C
:100010000C948B000C948B000C948B000C948B0034
:100020000C948B000C948B000C948B000C948B0024
:100030000C948B000C948B000C948B000C948B0014
:100040000C940E0A0C948B000C948B000C948B0077
:100050000C948B000C948B000C948B000C948B00F4
:100060000C94580A0C948B00000000002400270018
:100070002A0000000000250028002B0000000000DE
:1000800023002600290004040404040404040202DA
:100090000202020203030303030301020408102007
:1000A0004080010204081020010204081020000012
:1000B0000008000201000003040700000000000027
:1000C0000000770B0D1111241FBECFEFD8E0DEBF6B
:1000D000CDBF23E0AAECB1E001C01D92A536B20766
:1000E000E1F711E0A0E0B1E0E4EFFBE202C005902F
:1000F0000D92AA3CB107D9F710E0C2E6D0E004C0E7
:100100002197FE010E94E113C136D107C9F70E9471
:100110004A0C0C94ED150C940000E091D002F09183
:10012000D102309709F009948091E5029091E6029E
:100130006091B20270E0DC01ED91FC910190F081E0
:10014000E02D09950895833081F028F4813099F0ED
:100150008230A9F008958730A9F08830C9F0843042
:10016000B1F4809180008F7D03C0809180008F77F3
:1001700080938000089584B58F7784BD089584B5F9
:100180008F7DFBCF8091B0008F778093B000089572
:100190008091B0008F7DF9CFCF93DF93282F30E08F
:1001A000F901E255FF4F8491F901E656FF4FD491D2
:1001B000F901EA57FF4FC491CC23A1F081110E94AD
:1001C000A300EC2FF0E0EE0FFF1FE458FF4FA591C6
:1001D000B491EC91ED2381E090E009F480E0DF91AF
:1001E000CF91089580E090E0FACFCF93DF93C09154
:1001F000F302C3708091E7020E94CC00892B09F0C2
:10020000C4608091E8020E94CC00892B09F0C8608C
:100210004C2F50E08091EE029091EF02C03108F037
:100220008FC0FA01EA5EFE4F0C94E1133001260103
:100230009201990192013001A00126012601A0013D
:100240003001920199019201260130012091F402BE
:100250003091F502820F931F9093EF028093EE028C
:1002600055954795559547954093F302E091EE02D9
:10027000F091EF022091F0023091F102E217F307C2
:1002800009F489C06091E90270E0CF01821B930BF1
:1002900097FF03C0919581959109A091F402B091C7
:1002A000F5026A9FA0016B9F500D7A9F500D11249B
:1002B000841795070CF46FC0CF010E94AB13EB01BC
:1002C0008091EA029091EB02681779070CF447C01D
:1002D0004091EC025091ED02461757070CF43FC0D5
:1002E0002E173F07A4F581E08093F202E091F80217
:1002F000F091F902309719F087EE92E0099580911C
:10030000EE029091EF029093F1028093F002E0915F
:10031000F602F091F7023097F1F187EE92E0DF916B
:10032000CF9109942091F4023091F502821B930B36
:1003300093CF2091F4023091F502220F331F8ACF20
:100340002091F4023091F502220F331FEFCF8FEF8F
:100350008093F202E091FA02F091FB02CBCF30934E
:10036000EF022093EE02C817D9074CF4E091FC028B
:10037000F091FD02309719F087EE92E00995809197
:10038000EC029091ED028C179D072CF4E091FE0297
:10039000F091FF02C0CFDF91CF9108951F93CF93CB
:1003A000DF93282F30E0F901E255FF4F8491F901E6
:1003B000E656FF4FD491F901EA57FF4FC491CC2381
:1003C000A9F0162F81110E94A300EC2FF0E0EE0F90
:1003D000FF1FEE58FF4FA591B4918FB7F894EC91A1
:1003E000111108C0D095DE23DC938FBFDF91CF9130
:1003F0001F910895DE2BF8CFCF93DF9390E0FC019F
:10040000E656FF4F24918A579F4FFC018491882321
:10041000C9F090E0880F991FFC01E859FF4FA591A2
:10042000B491FC01EE58FF4FC591D49161110DC0FC
:100430009FB7F8948C91209582238C9388812823F0
:1004400028839FBFDF91CF910895623051F49FB709
:10045000F8943C91822F809583238C93E8812E2BF6
:10046000EFCF8FB7F894EC912E2B2C938FBFEACF60
:100470003FB7F8948091920290919302A0919402D8
:10048000B091950226B5A89B05C02F3F19F00196A3
:10049000A11DB11D3FBFBA2FA92F982F8827BC01DE
:1004A000CD01620F711D811D911D42E0660F771F06
:1004B000881F991F4A95D1F708958F929F92AF9206
:1004C000BF92CF92DF92EF92FF924B015C010E94AC
:1004D00038026B017C010E9438026C197D098E097B
:1004E0009F09683E734081059105A8F321E0821AB7
:1004F0009108A108B10888EEC80E83E0D81EE11C5F
:10050000F11C81149104A104B10429F7FF90EF902C
:10051000DF90CF90BF90AF909F908F900895862FDF
:10052000642F0C94FC0108950895AF92BF92CF926E
:10053000DF92EF92FF920F931F93CF93DF936C01A3
:100540007B018B01040F151FEB015E01AE18BF0884
:10055000C017D10759F06991D601ED91FC91019036
:10056000F081E02DC6010995892B79F7C501DF914E
:10057000CF911F910F91FF90EF90DF90CF90BF90A0
:10058000AF900895FC01448155816081718184EAB6
:1005900092E00C94950220913602260F3327331FE8
:1005A00021323105ECF420915A02FC0190E080E008
:1005B000243069F082E00895A09136022191AC01C7
:1005C0004A5E5D4FA40FB52FB11D2C93019686177F
:1005D00098F380913602680F6093360280E00895A8
:1005E00081E0089510925A0281E080935C0210929B
:1005F0005B0261E082E10E94CE0161E083E10E9442
:10060000CE01E9EBF0E080818E7F808380818D7F59
:10061000808388E48093B80085E48093BC000895CB
:10062000CF93DF9391E0909315028823B9F0C091A6
:10063000B800D091BA008091BC008A7B8093BC0046
:1006400060E082E10E94CE0160E083E10E94CE0181
:100650000E94F202D093BA00C093B800DF91CF910C
:1006600008950895E091870280918602E81730F49A
:10067000F0E0E051FE4F808190E008958FEF9FEF12
:10068000089590918702809186022FEF3FEF98178F
:1006900048F4E92FF0E0E051FE4F208130E09F5F09
:1006A00090938702C90108958091860290918702F4
:1006B000891B990B0895CF92DF92EF92FF920F93CF
:1006C0001F93CF93DF937C01CB018A012091EF012F
:1006D000222389F0EB016B01C40ED51ECC15DD057C
:1006E00069F06991D701ED91FC910190F081E02DC5
:1006F000C7010995F3CF642F0E94CB02C801DF9197
:10070000CF911F910F91FF90EF90DF90CF900895C0
:10071000CF93DF931F92CDB7DEB769832091EF01AE
:100720002223F9F020918402203258F021E030E0B9
:10073000FC013383228390E080E00F90DF91CF9122
:10074000089580918502E82FF0E0E153FE4F9981F2
:1007500090838F5F809385028093840281E090E094
:10076000ECCF61E0CE0101960E94CB02F7CFCF9291
:10077000DF92EF92FF920F931F93CF93DF93FC01D1
:10078000C48121E02093EF01C093CE011092850235
:10079000109284028385682B86E992E00E94880388
:1007A000D0918402D13208F092C00E9438026B01CD
:1007B0007C0180915A02811165C082E080935A02C7
:1007C00081E080935C028FEF8093590210927E0249
:1007D000D0937D02AFECB1E0EDE5F2E080E0D8131C
:1007E00085C010927F0280917F02CC0FC82BC093EE
:1007F0007F0280915B02813009F07CC010925B0225
:100800000E9438026B017C0180917F028093BB00C3
:100810008091110290911202A0911302B0911402E2
:10082000892B8A2B8B2B99F00E94380200911102A0
:100830001091120220911302309114026C197D095B
:100840008E099F090617170728073907E0F18091DD
:10085000BC0083FDD9CF85EC8093BC000E94380298
:100860006B017C0180915A02823009F445C080916D
:1008700059028F3F61F180915902803241F180919C
:10088000590225C08091110290911202A091130289
:10089000B0911402892B8A2B8B2B09F48ACF0E94EA
:1008A000380200911102109112022091130230912E
:1008B00014026C197D098E099F090617170728076E
:1008C000390708F076CF809110020E941003109231
:1008D0008502109284021092EF01DF91CF911F9157
:1008E0000F91FF90EF90DF90CF9008959D9191939D
:1008F0008F5F75CF85EEB0CF80911102909112027B
:10090000A0911302B0911402892B8A2B8B2B09F42E
:10091000A9CF0E9438020091110210911202209179
:100920001302309114026C197D098E099F09061774
:1009300017072807390708F095CFC5CF089590E02D
:1009400080E0089508950CB405FC0DC09EBD000024
:100950000DB407FEFDCF9EB58EBD00000DB407FEA1
:10096000FDCF8EB508958EBD00000DB407FEFDCFFE
:100970008EB59EBD00000DB407FEFDCF9EB5089557
:100980008CBD9DBD08951F93CF93DF93EC018091A3
:100990001203882329F060E0809111030E94CE01A8
:1009A000809100038823A9F08091070390910803A8
:1009B0000E94C004CE010E94A304809112038823E8
:1009C000C9F161E080911103DF91CF911F910C94E7
:1009D000CE0160910E03B62FB09570910B03172FC7
:1009E000109580E190E020E030E8AFB7F894E09116
:1009F0000903F0910A03AE0142235323452BB9F0BA
:100A00004081472B4083E0910C03F0910D0340811E
:100A10004B234083E0910C03F0910D034081462B62
:100A20004083AFBF369527950197F9F6C6CF408131
:100A30004123E8CFDF91CF911F910895862F642F36
:100A40000C94CE01862F0C94CC000F931F93CF9360
:100A50008C01C62F0E94B7036C2F6460C8010E94EE
:100A6000B7036C2F6B7FC8010E94B70383EC90E043
:100A70000197F1F7CF911F910F9108950F931F9355
:100A8000CF93DF938C01D62FC42F607F642B0E94FD
:100A9000250580E1D89FB00111246C2BC801DF919E
:100AA000CF911F910F910C94250540E061E084EAFD
:100AB00092E00E943E058BE39FE10197F1F70895D4
:100AC000CF93DF93CDB7DEB728970FB6F894DEBF8C
:100AD0000FBECDBF98E0ECE0F1E0DE011196019091
:100AE0000D929A95E1F79091AC02981708F48FEF68
:100AF00090E0880F991F21E030E02C0F3D1F820FFE
:100B0000931FFC016081606840E084EA92E02896CF
:100B10000FB6F894DEBF0FBECDBFDF91CF910C941E
:100B20003E0541E00E943E0581E090E00895FC0111
:100B300001900020E9F73197AF01481B590BBC0128
:100B400084EA92E00C9495028F929F92AF92BF92AA
:100B50000F931F93CF93DF93CDB7DEB7A1970FB657
:100B6000F894DEBF0FBECDBF19A2423008F44AE0B0
:100B70008E010F5D1F4F842E912CB12CA12CA5014D
:100B800094010E94BF13E62FB901CA01EA30F4F4C0
:100B9000E05DD801EE938D01232B242B252B79F7D3
:100BA00090E080E0109719F0CD010E949705A19682
:100BB0000FB6F894DEBF0FBECDBFDF91CF911F916E
:100BC0000F91BF90AF909F908F900895E95CE1CF17
:100BD0000F931F93CF93DF93EC0188819981009746
:100BE00059F02A813B812617370730F081E0DF91E9
:100BF000CF911F910F9108958B016F5F7F4F0E94DE
:100C00002015009759F0998388831B830A832C81D0
:100C10003D81232B59F7FC011082E8CF80E0E7CF1C
:100C2000CF93DF93EC0188819981009711F00E94A6
:100C30009714198218821D821C821B821A82DF91EE
:100C4000CF910895EF92FF920F931F93CF93DF936D
:100C50008C017B01EB0109900020E9F72197C61B6D
:100C6000D70BBE010E94E805811109C0C801DF91C0
:100C7000CF911F910F91FF90EF900C941006F80107
:100C8000D583C483B70180819181DF91CF911F917A
:100C90000F91FF90EF900C94E615EF92FF920F9357
:100CA0001F93CF93DF93EC01FB01E080F180E1140F
:100CB000F10411F10481158101151105A9F08C8150
:100CC0009D81080F191FB801CE010E94E8058823F5
:100CD00099F0288139818C819D81B701820F931F02
:100CE0000E94E6151D830C83CE01DF91CF911F91E9
:100CF0000F91FF90EF900895CE010E941006F4CF5F
:100D0000EF92FF920F931F93CF93DF93EC017B0140
:100D1000198218821B821A821D821C82FB0101909B
:100D20000020E9F731978F01061B170BB8010E94CD
:100D3000E805811109C0CE01DF91CF911F910F917C
:100D4000FF90EF900C9410061D830C83B7018881EF
:100D50009981DF91CF911F910F91FF90EF900C94AB
:100D6000E615FC0180819181009711F00C94971495
:100D700008958F929F92AF92BF92CF92DF92EF929F
:100D8000FF920F931F93CF93DF93CDB7DEB72C97CE
:100D90000FB6F894DEBF0FBECDBFF82E8B010E94B8
:100DA0005505F1101FC180E00E9460058CE491E0C0
:100DB0000E949705C0900001D0900101E0900201CF
:100DC000F09003016EE871E0CE0101960E9480066A
:100DD00020E034E244E759E4C701B6010E94A113C0
:100DE00087FD5CC020E034E244E759E4C701B60166
:100DF0000E94F9126B017C0162E571E0CE0101965F
:100E00000E942206A7019601C701B6010E94A613FF
:100E1000882309F45AC086E591E00E94970581E78E
:100E200091E00E949705CE0101960E94C20281E0E6
:100E30000E946005809104019091050126E0289FA1
:100E40008001299F100D11240D5B1C4F62E671E09B
:100E5000CE0107960E948006B801CE0107960E9437
:100E60004D060E94C202CE0107960E94B106CE0135
:100E700001960E94B1062C960FB6F894DEBF0FBE05
:100E8000CDBFDF91CF911F910F91FF90EF90DF9039
:100E9000CF90BF90AF909F908F90089520E030E06A
:100EA0004AE754E4C701B6010E94A11387FDAACF07
:100EB00020E030E04AE754E4C701B6010E94F9128D
:100EC0006B017C016DE871E099CF46015701E89410
:100ED000B7F82FEF3FEF4FE75FE7C501B4010E947E
:100EE000A61381110DC02FEF3FEF4FE75FE7C5015C
:100EF000B4010E94311118161CF48AE591E08DCFDF
:100F00002FEF3FEF4FE75FE4C701B6010E94A11347
:100F100018161CF48EE591E080CF2FEF3FEF4FE7DE
:100F20005FECC701B6010E94311187FDF3CF20E0CD
:100F300030E0A901C701B6010E94311187FF0AC044
:100F400041E06DE284EA92E00E943E05F7FAF094F7
:100F5000F7F8F0942EE632E143E05AE3C701B60118
:100F60000E948D126B017C010E9472134B015C0187
:100F70000E9436119B01AC01C701B6010E948C1280
:100F80006B017C014AE0C501B4010E94A40541E067
:100F90006EE284EA92E00E943E0514E0115009F4EA
:100FA0003ECF20E030E040E251E4C701B6010E94AC
:100FB00097114B015C010E9472136B01F12CE12C23
:100FC0004AE0C701B6010E94A405C701B6010E940C
:100FD00036119B01AC01C501B4010E948C126B015A
:100FE0007C01DCCF81E00E94600501301105C1F178
:100FF0000230110509F443C080910401909105016C
:1010000026E0289F8001299F100D11240D5B1C4FA5
:1010100062E671E0CE0101960E948006B801CE0121
:1010200001960E944D060E94C202CE0101960E94C6
:10103000B1062FB7F89480918E0290918F02A09103
:101040009002B09191022FBF809388029093890201
:10105000A0938A02B0938B0281E080938C020BCF25
:101060008091CA019091CB0126E0289F8001299FA1
:10107000100D1124055D1C4F6BE671E0CBCF83E7AB
:1010800091E00E94970568EE73E080E090E00E9496
:101090005D020E94550580E891E00E949705C9CF46
:1010A0008F929F92AF92BF92CF92DF92EF92FF9278
:1010B000CF93DF93FC01628170E0878190850E946D
:1010C000AB13EB018091CC019091CD01861797076E
:1010D0000CF402C18617970709F496C0E091CA0183
:1010E000F091CB01EE0FFF1FEE0FFF1FEC5EFE4FE6
:1010F00080809180A280B380B7FAB094B7F8B094A2
:10110000C0900001D0900101E0900201F090030135
:101110002DEC3CEC4CEC5DE3C701B6010E943111B3
:1011200018160CF0B2C020E030E040E85FE3C701E1
:10113000B6010E94311187FDACC020E030E040E2F2
:1011400051E4C701B6010E94311187FDA7C020E01C
:1011500030E048EC52E4C701B6010E94311187FD2E
:10116000A2C020E030E04AE754E4C701B6010E9483
:10117000311187FDD1C020E030E44CE156E4C701D5
:10118000B6010E94311187FD93C020E030E543ECA9
:1011900057E4C701B6010E94311187FD8EC020E0DF
:1011A00034E244E759E4C701B6010E94311187FDDA
:1011B00089C020E836E948E15BE4C701B6010E9436
:1011C000311187FD84C060E070E583EC97E4A501F0
:1011D00094010E9497119B01AC01609100017091F4
:1011E000010180910201909103010E948D12609390
:1011F000000170930101809302019093030170E05C
:1012000060E080E00E94B906D093CD01C093CC018C
:10121000DF91CF91FF90EF90DF90CF90BF90AF9094
:101220009F908F90089520E030E04AE754E4C70192
:10123000B6010E94311187FD3BC020E030E44CE153
:1012400056E4C701B6010E94311187FD36C020E087
:1012500030E543EC57E4C701B6010E94311187FD28
:1012600031C020E034E244E759E4C701B6010E94EE
:10127000311187FD2CC020E03BE147E35BE4C7016F
:10128000B6010E94311187FD9ECF60E070E0CB0176
:101290009ECF6FE672E183E89AE399CF6AE077ED3B
:1012A00083E29CE394CF6DEC7CEC8CEC9DE38FCFE0
:1012B00060E070E080E291E48ACF60E070E088EC6A
:1012C00092E485CF60E070E08AE794E480CF60E04C
:1012D00070E48CE196E47BCFE091CA01F091CB0100
:1012E000EE0FFF1FEE0FFF1FEC5EFE4F8080918020
:1012F000A280B380C0900001D0900101E090020173
:10130000F090030120E030E048EC52E4C701B60160
:101310000E94311187FF87CF60E070E080E89FE393
:1013200056CFFC018781908581309105B1F018F08E
:10133000039719F108958091040190910501019698
:1013400065E070E00E94AB13909305018093040167
:1013500070E060E081E00C94B9068091CA01909140
:10136000CB01019664E070E00E94AB139093CB0137
:101370008093CA0161E070E0EDCF82E090E090934D
:101380000501809304011092CB011092CA0180E004
:1013900090E0AAE7B4E48093000190930101A09348
:1013A0000201B093030162E070E0D4CF85ED809339
:1013B000BC008091110290911202A0911302B09191
:1013C00014020796A11DB11D23E0B695A795979528
:1013D00087952A95D1F72091BC0024FD03C0109277
:1013E0005A02089540911102509112026091130225
:1013F00070911402452B462B472B69F30097A105EA
:10140000B10541F02AE22A95F1F700C00197A10940
:10141000B109E1CF809110020C9410031F920F923A
:101420000FB60F9211242F933F938F939F93AF93F7
:10143000BF9380918E0290918F02A0919002B09103
:10144000910230918D0223E0230F2D3758F501963C
:10145000A11DB11D20938D0280938E0290938F0267
:10146000A0939002B0939102809192029091930286
:10147000A0919402B09195020196A11DB11D809397
:10148000920290939302A0939402B0939502BF911D
:10149000AF919F918F913F912F910F900FBE0F9021
:1014A0001F90189526E8230F0296A11DB11DD2CFDB
:1014B0001F920F920FB60F9211242F933F934F93C9
:1014C0005F936F937F938F939F93AF93BF93EF93AC
:1014D000FF938091B900887F803609F44AC0F0F507
:1014E000883209F4A7C018F5803109F49BC0B8F41C
:1014F000882309F4F9C0883009F494C0FF91EF9172
:10150000BF91AF919F918F917F916F915F914F911B
:101510003F912F910F900FBE0F901F90189588311B
:1015200009F488C0803251F78093590214C0803486
:1015300009F49DC040F48033B9F38833F9F6809301
:10154000590285ECB0C0803509F485C0883509F4AE
:1015500096C0883499F60E94D609D0CF883909F40C
:101560008CC038F5883729F050F4883611F0803770
:1015700029F683E080935A021092580257C08838A7
:1015800009F47BC0803919F0803809F0B7CF809119
:101590005802803208F071C0E091580281E08E0F4D
:1015A000809358028091BB00F0E0E85CFD4F80839F
:1015B0003DC0803B39F0E0F4803A09F479C0883AC4
:1015C00009F09CCF84E080935A0210923702109267
:1015D0003602E0918202F0918302099580913602F1
:1015E00081110FC081E0809336021092160209C06B
:1015F000803C09F4A6CF883C09F4A3CF883B09F0CE
:101600007DCFE091370281E08E0F80933702F0E0CA
:10161000EA5EFD4F80818093BB00909137028091FC
:10162000360229C080917F028093BB0085EC8093B5
:10163000BC0064CF90917E0280917D02981758F58E
:10164000E0917E0281E08E0F80937E02F0E0E35A0B
:10165000FD4F8081E9CFE0917E0281E08E0F809383
:101660007E028091BB00F0E0E35AFD4F80839091B1
:101670007E0280917D029817C8F285E8D8CFE0916C
:101680007E0281E08E0F80937E028091BB00F0E0AD
:10169000E35AFD4F808380915C0281115CCF81E031
:1016A00080935B0284EA8093BC0010925A0226CF9A
:1016B00085EC8093BC0010925A02809158028032CF
:1016C00030F4E0915802F0E0E85CFD4F1082609148
:1016D000580270E0E0918002F091810288E392E08C
:1016E0000995109258020ACF1092590234CFE6E9B8
:1016F000F2E01382128288EE93E0A0E0B0E08483EF
:101700009583A683B78382E391E09183808361E927
:1017100071E083E493E00E94800665E971E089E46A
:1017200093E00E9480066AE971E08FE493E00E94F2
:10173000800662EA71E085E593E00E9480066AEA2D
:1017400071E08BE593E00E94800663EB71E08BE231
:1017500093E00E94800668EB71E081E393E00E94D1
:1017600080066DEB71E087E393E00E94800661ECF8
:1017700071E08DE393E00E948006E0E0F3E080E01A
:1017800092E1AAE7B0E081839283A383B48380E5EA
:1017900087831086128A81E0838B158A148A168AC1
:1017A000178A108E118E128E138E148E158E168E31
:1017B000178E10A211A212A213A214A215A216A291
:1017C00087E79CECABE2B1E487A390A7A1A7B2A7FF
:1017D00089E0818B8BE087878DE0808B1082168279
:1017E0001582E7EEF2E0108A1786128A118A148AAF
:1017F000138A168A158A108E178AE0EBF2E015829A
:10180000168284E090E0908787831186148A138A79
:10181000158A168A82E390E0908F878B88EC90E09F
:10182000928F818F8CE291E0948F838F168E158E2C
:10183000178E11A210A213A212A215A214A217A20F
:1018400016A211A610A613A612A615A614A617A6D0
:1018500016A611AA10AA13AA12AA8FEF828380914A
:10186000A2029091A3029183808301969093A30298
:101870008093A202E4EAF2E01382128284E491E00F
:101880009183808387E2848380E1818782E08287FD
:1018900013860895789484B5826084BD84B5816090
:1018A00084BD85B5826085BD85B5816085BD80912B
:1018B0006E00816080936E001092810080918100A3
:1018C000826080938100809181008160809381009B
:1018D000809180008160809380008091B10084605D
:1018E0008093B1008091B00081608093B0008091BE
:1018F0007A00846080937A0080917A00826080937D
:101900007A0080917A00816080937A0080917A00D9
:10191000806880937A001092C1008091110391E059
:101920008F3F09F490E0909312038F3F41F061E004
:101930000E94FC0161E0809111030E94CE0188E5C4
:101940008093070381E08093080380910003811155
:1019500044C061E080910F030E94FC0161E080912E
:1019600010030E94FC0160E080910F030E94CE01F1
:1019700061E0809110030E94CE0180910F0390E0FE
:10198000FC01EA57FF4FE491F0E0EE0FFF1FEE5825
:10199000FF4F2591349130930A0320930903FC01F2
:1019A000E656FF4FE491E0930B038091100390E023
:1019B000FC01EA57FF4FE491F0E0EE0FFF1FEE58F5
:1019C000FF4F2591349130930D0320930C03FC01BC
:1019D000E656FF4FE491E0930E038091140390913B
:1019E00015039F7391600E94C30410921603109216
:1019F0001B0310921C0310921D0310921E031092E1
:101A00001703109218031092190310921A031092E0
:101A100023031092240310922503109226031092A0
:101A20001F0310922003109221031092220380E0E2
:101A300090E290931503809314030E94C3041092C4
:101A400087021092860210928502109284020E94F0
:101A5000F20283E992E0909383028093820284E908
:101A600092E090938102809380021092A90280916B
:101A7000AE02823018F098E09093A9028093AC02F5
:101A800062E370E080E090E00E945D026091AF024E
:101A900084EA92E00E94B70368EE73E080E090E091
:101AA0000E945D0260E384EA92E00E942505CBE497
:101AB000D6E4CE010197F1F760E384EA92E00E9458
:101AC00025052197F1F760E384EA92E00E9425055D
:101AD00083E592E00197F1F760E284EA92E00E94E8
:101AE00025056091A902606240E084EA92E00E94CC
:101AF0003E05C4E0C093AA0240E06CE084EA92E0B4
:101B00000E943E050E945505D2E0D093AB0240E012
:101B100066E084EA92E00E943E0540E062E084EAEA
:101B200092E00E943E058BE39FE10197F1F788E088
:101B30008093AF0260E084EA92E00E94B70370E015
:101B400060E080E00E94B906D093E70283E08093D2
:101B5000E80262E082E00E94FC0162E083E00E9411
:101B6000FC018FEF9FE79093ED028093EC0280E001
:101B700090E89093EB028093EA0281E090E09093EA
:101B8000F5028093F402C093E9020E94F50080916F
:101B9000EC029091ED0297FF74C14091E902489FD9
:101BA0009001499F300D11243093F1022093F002EF
:101BB0008091F0029091F1022091EE023091EF02BB
:101BC0002817390721F09093EF028093EE021092CC
:101BD000F20280E598E09093F7028093F60282E0AB
:101BE00090E00E94FB1328E231E0FC013183208366
:101BF0009093E6028093E50284E08093B202109213
:101C0000C4021092C3021092C2021092E40262E077
:101C10000E94FC010E948D008093B3028093B40265
:101C200081E999E09093DB028093DA029093DF02DE
:101C30008093DE029093E1028093E00211E066243B
:101C40006394712CF3E08F2E912C0E94F50080910B
:101C5000B2028F3F81F18091B3028093B4020E945F
:101C60008D008093B3029091E4028913A0C18FB7D5
:101C7000F894C0908E02D0908F02E0909002F09085
:101C800091028FBF9091B4028091E402981709F4F9
:101C90000DC1C092BE02D092BF02E092C002F0928B
:101CA000C1021092CF02C092BA02D092BB02E0925F
:101CB000BC02F092BD02209104012530D0F4809145
:101CC000140390911503209316038571223009F4B3
:101CD0002DC208F022C2222309F426C290931503D4
:101CE0008093140380911403909115039F730E94B5
:101CF000C304C0900001D0900101E0900201F09077
:101D0000030120E030E0A901C701B6010E943111B2
:101D100087FD10C220E23CEB4EE35BE4C701B60155
:101D20000E94A11318160CF409C2209127033091C8
:101D300028034091290350912A03C701B6010E944C
:101D400097111B012C0180911303882309F404C20D
:101D500020E030E0A901C201B1010E94A11320E0FE
:101D600030E040E05FE387FDF2C1C201B1010E94B3
:101D70008D120E946B131B012C0180911403909112
:101D800015039C01306230931503209314039F7355
:101D900090620E94C30451019FE3B9226894B6F88F
:101DA0006EE056944794379427946A95D1F7E101F1
:101DB000DF73D06480911203882329F060E0809162
:101DC00011030E94CE0180910003882309F4CBC146
:101DD00080910703909108030E94C004C5010E94EE
:101DE000A304CE010E94A30480911203882329F04A
:101DF00061E0809111030E94CE01C0921703D0923E
:101E00001803E0921903F0921A0380911403909141
:101E100015039C01377F30931503209314039773A8
:101E20000E94C30480918C02882319F12FB7F89483
:101E300080918E0290918F02A0919002B0919102B8
:101E40002FBF409188025091890260918A0270915F
:101E50008B02841B950BA60BB70B893E9340A10503
:101E6000B10538F010928C0270E060E080E00E94D2
:101E7000B90680E090E0892B09F4E7CE0E940000CB
:101E8000E4CE2091EA023091EB0290E080E012165D
:101E900013063CF44091E902429FC001439F900D1C
:101EA00011249093F1028093F00282CE8091CF02B0
:101EB000811132C08091BE029091BF02A091C002F8
:101EC000B091C102B701A601481B590B6A0B7B0BED
:101ED0008091C7029091C802B0E0A0E0481759076E
:101EE0006A077B07C8F08091B5021093CF028F5F1D
:101EF0008093B502E091D602F091D702309719F0A5
:101F000080EB92E00995E091D202F091D3023097F4
:101F100019F080EB92E00995A091B502A13009F08B
:101F2000CACEE091DE02F091DF02309709F4C3CE11
:101F30008091C6028111BFCE8091C3029091C402EC
:101F400001964091BE025091BF026091C002709113
:101F5000C102C41AD50AE60AF70A4091C902509193
:101F6000CA02849F9001859F300D949F300D1124EB
:101F7000A90170E060E0C416D506E606F70608F48D
:101F80009ACE2091C202211102C0A093C6021093E2
:101F9000B6029092B8028092B7029093C4028093E6
:101FA000C30280EB92E009951093C50284CE2FB74F
:101FB000F89480918E0290918F02A0919002B0913E
:101FC00091022FBF3091B4022091E40232133AC043
:101FD0002091BE023091BF02821B930B9093CE02E0
:101FE0008093CD022091C7023091C80282179307D7
:101FF00008F461CEE091D602F091D702309719F043
:1020000080EB92E00995E091D402F091D5023097EF
:1020100019F080EB92E00995E091D802F091D90295
:10202000309719F080EB92E009952091CD02309124
:10203000CE028091C9029091CA022817390708F090
:10204000B3CF39CE4091BA025091BB026091BC022D
:102050007091BD02841B950BA60BB70B4091CB0270
:102060005091CC0270E060E0481759076A077B077F
:1020700008F021CE8091B502882309F41CCE80930C
:10208000B6028130A1F58091C502882311F19092AA
:10209000B8028092B702E091DC02F091DD02309745
:1020A00019F080EB92E009951092C4021092C302DD
:1020B0001093B9021092B5021092BA021092BB02AC
:1020C0001092BC021092BD021092C5021092C6027C
:1020D000F2CD1092B8021092B702E091DA02F091BC
:1020E000DB02309729F380EB92E00995E1CF823053
:1020F00049F47092B8026092B702E091E002F09168
:10210000E102EFCF82E090E09093B8028093B702B3
:10211000E091E202F091E302E4CF233049F0243071
:1021200009F0DCCD8260DACD806CD8CD8862D6CD66
:102130008062D4CDC12CD12C7601F7CD70E2C72EB0
:102140007CEBD72E7EE3E72E7BE4F72EEECDC201AB
:10215000B1010E948C120DCEC201B1010E94721316
:102160001B012C010ACE70910E03B72FB095609120
:102170000B03A62FA09580E190E020E030E85FB649
:10218000F894E0910903F0910A03A5014223532337
:10219000452B09F43CC04081462B4083E0910C0361
:1021A000F0910D0340814B234083E0910C03F091AB
:1021B0000D034081472B40835FBE369527950197DD
:1021C000F1F680E190E020E030E8BFB6F894E091CD
:1021D0000903F0910A03A9014C235D23452BD1F09B
:1021E0004081462B4083E0910C03F0910D03408128
:1021F0004B234083E0910C03F0910D034081472B6A
:102200004083BFBE369527950197F9F6EDCD408105
:102210004A23C3CF40814A23E5CF8DE393E00E9458
:10222000B10687E393E00E94B10681E393E00E9448
:10223000B1068BE293E00E94B1068BE593E00E9429
:10224000B10685E593E00E94B1068FE493E00E9419
:10225000B10689E493E00E94B10683E493E00C9414
:10226000B1060E94731108F481E00895E89409C052
:1022700097FB3EF490958095709561957F4F8F4FB9
:102280009F4F9923A9F0F92F96E9BB279395F695CF
:10229000879577956795B795F111F8CFFAF4BB0F4D
:1022A00011F460FF1BC06F5F7F4F8F4F9F4F16C0B1
:1022B000882311F096E911C0772321F09EE8872F3B
:1022C000762F05C0662371F096E8862F70E060E0F7
:1022D0002AF09A95660F771F881FDAF7880F969570
:1022E000879597F90895990F0008550FAA0BE0E814
:1022F000FEEF16161706E807F907C0F012161306C8
:10230000E407F50798F0621B730B840B950B39F407
:102310000A2661F0232B242B252B21F408950A266D
:1023200009F4A140A6958FEF811D811D08950E949B
:10233000AA110C941B120E940D1238F00E94141264
:1023400020F0952311F00C9404120C940A1211241D
:102350000C944F120E942C1270F3959FC1F3950FAD
:1023600050E0551F629FF001729FBB27F00DB11D19
:10237000639FAA27F00DB11DAA1F649F6627B00DA9
:10238000A11D661F829F2227B00DA11D621F739F92
:10239000B00DA11D621F839FA00D611D221F749FA0
:1023A0003327A00D611D231F849F600D211D822FE7
:1023B000762F6A2F11249F5750409AF0F1F088230E
:1023C0004AF0EE0FFF1FBB1F661F771F881F91503B
:1023D0005040A9F79E3F510580F00C9404120C94D4
:1023E0004F125F3FE4F3983ED4F386957795679557
:1023F000B795F795E7959F5FC1F7FE2B880F911D65
:102400009695879597F9089597F99F6780E870E00A
:1024100060E008959FEF80EC089500240A9416165A
:10242000170618060906089500240A9412161306C2
:10243000140605060895092E0394000C11F4882350
:1024400052F0BB0F40F4BF2B11F460FF04C06F5F6C
:102450007F4F8F4F9F4F089557FD9058440F551F42
:1024600059F05F3F71F04795880F97FB991F61F016
:102470009F3F79F087950895121613061406551F8D
:10248000F2CF4695F1DF08C0161617061806991FF9
:10249000F1CF86957105610508940895E894BB27EE
:1024A00066277727CB0197F908952F923F924F9295
:1024B0005F926F927F928F929F92AF92BF92CF92D4
:1024C000DF92EF92FF920F931F93CF93DF93CDB7DD
:1024D000DEB7CA1BDB0B0FB6F894DEBF0FBECDBF55
:1024E00009942A88398848885F846E847D848C8426
:1024F0009B84AA84B984C884DF80EE80FD800C812F
:102500001B81AA81B981CE0FD11D0FB6F894DEBF11
:102510000FBECDBFED0108955058BB27AA270E94DA
:10252000A4120C941B120E940D1238F00E94141277
:1025300020F039F49F3F19F426F40C940A120EF49B
:10254000E095E7FB0C940412E92F0E942C1258F33B
:10255000BA17620773078407950720F079F4A6F588
:102560000C944E120EF4E0950B2EBA2FA02D0B01F9
:10257000B90190010C01CA01A0011124FF27591BC8
:1025800099F0593F50F4503E68F11A16F040A22FCE
:10259000232F342F4427585FF3CF4695379527953F
:1025A000A795F0405395C9F77EF41F16BA0B620B3E
:1025B000730B840BBAF09150A1F0FF0FBB1F661F85
:1025C000771F881FC2F70EC0BA0F621F731F841FC8
:1025D00048F4879577956795B795F7959E3F08F0EE
:1025E000B0CF9395880F08F09927EE0F97958795B0
:1025F00008950E940D130C941B120E94141258F09F
:102600000E940D1240F029F45F3F29F00C9404124F
:1026100051110C944F120C940A120E942C1268F360
:102620009923B1F3552391F3951B550BBB27AA278B
:1026300062177307840738F09F5F5F4F220F331FC5
:10264000441FAA1FA9F335D00E2E3AF0E0E832D08D
:1026500091505040E695001CCAF72BD0FE2F29D090
:10266000660F771F881FBB1F261737074807AB0762
:10267000B0E809F0BB0B802DBF01FF2793585F4FD7
:102680003AF09E3F510578F00C9404120C944F12CE
:102690005F3FE4F3983ED4F3869577956795B795B9
:1026A000F7959F5FC9F7880F911D9695879597F9C4
:1026B0000895E1E0660F771F881FBB1F621773073D
:1026C0008407BA0720F0621B730B840BBA0BEE1F52
:1026D00088F7E09508950E9472136894B1110C94E4
:1026E0004F1208950E94341288F09F5798F0B92F26
:1026F0009927B751B0F0E1F0660F771F881F991F37
:102700001AF0BA95C9F714C0B13091F00E944E1278
:10271000B1E008950C944E12672F782F8827B85F88
:1027200039F0B93FCCF3869577956795B395D9F78E
:102730003EF490958095709561957F4F8F4F9F4F98
:1027400008950E94731108F48FEF08950E94731189
:10275000880B990B089597FB072E16F4009407D069
:1027600077FD09D00E94E71307FC05D03EF4909551
:1027700081959F4F0895709561957F4F0895A1E2CF
:102780001A2EAA1BBB1BFD010DC0AA1FBB1FEE1FEB
:10279000FF1FA217B307E407F50720F0A21BB30B36
:1027A000E40BF50B661F771F881F991F1A9469F7B2
:1027B00060957095809590959B01AC01BD01CF010E
:1027C0000895EE0FFF1F0590F491E02D0994AA1BC8
:1027D000BB1B51E107C0AA1FBB1FA617B70710F00C
:1027E000A61BB70B881F991F5A95A9F7809590953E
:1027F000BC01CD0108950F931F93CF93DF938230D7
:10280000910510F482E090E0E0916303F09164039D
:1028100030E020E0B0E0A0E0309799F421153105D8
:1028200009F44AC0281B390B24303105D8F58A81B8
:102830009B816115710589F1FB0193838283FE0100
:1028400011C0408151810281138148175907E0F07E
:102850004817590799F4109761F012960C93129744
:1028600013961C933296CF01DF91CF911F910F9158
:1028700008950093630310936403F4CF2115310589
:1028800051F04217530738F0A901DB019A01BD014D
:10289000DF01F801C1CFEF01F9CF9093640380937A
:1028A0006303CDCFFE01E20FF31F8193919322507A
:1028B000310939832883D7CF209161033091620396
:1028C000232B41F4209108013091090130936203D8
:1028D00020936103209106013091070121153105F4
:1028E00041F42DB73EB740910A0150910B01241BD2
:1028F000350BE0916103F0916203E217F307A0F456
:102900002E1B3F0B2817390778F0AC014E5F5F4F45
:102910002417350748F04E0F5F1F50936203409312
:102920006103819391939FCFF0E0E0E09CCFCF9340
:10293000DF930097E9F0FC01329713821282A09195
:102940006303B0916403ED0130E020E01097A1F43F
:1029500020813181820F931F2091610330916203A6
:102960002817390709F061C0F0936203E09361030F
:10297000DF91CF910895EA01CE17DF07E8F54A818C
:102980005B819E0141155105B1F7E901FB83EA83A3
:1029900049915991C40FD51FEC17FD0761F480814F
:1029A00091810296840F951FE90199838883828122
:1029B00093819B838A83F0E0E0E012968D919C9155
:1029C00013970097B9F52D913C911197CD0102967F
:1029D000820F931F209161033091620328173907FA
:1029E00039F6309751F51092640310926303B09357
:1029F0006203A0936103BCCFD383C2834081518122
:102A0000840F951FC817D90761F44E5F5F4F888107
:102A10009981480F591F518340838A819B819383F9
:102A200082832115310509F0B0CFF0936403E09360
:102A300063039ECFFD01DC01C0CF13821282D7CF8A
:102A4000B0E0A0E0E6E2F5E10C9457128C010097AB
:102A500051F4CB010E94FB138C01C801CDB7DEB746
:102A6000E0E10C947312FC01E60FF71F9C01225069
:102A70003109E217F30708F49DC0D901CD91DC912B
:102A80001197C617D70798F0C530D10530F3CE019E
:102A900004978617970708F3C61BD70B2297C19395
:102AA000D1936D937C93CF010E949714D6CF5B0195
:102AB000AC1ABD0A4C018C0E9D1EA0916303B0910F
:102AC0006403512C412CF12CE12C109731F58091AD
:102AD0006103909162038815990509F05CC0461660
:102AE000570608F058C080910601909107010097A1
:102AF00041F48DB79EB740910A0150910B01841BA0
:102B0000950BE817F90708F055C0F0936203E093BE
:102B10006103F90171836083A0CF8D919C9111971E
:102B200012966C90129713967C901397A815B9057E
:102B300059F56C0142E0C40ED11CCA14DB0420F12B
:102B4000AC014A195B09DA011296159780F062828E
:102B5000738251834083D9016D937C93E114F10416
:102B600071F0D7011396FC93EE93129776CF2296CD
:102B70008C0F9D1FF90191838083F301EFCFF093B8
:102B80006403E093630369CF4816590608F42C01E7
:102B90007D01D3019ACFCB010E94FB137C010097EA
:102BA00049F0AE01B8010E94DD15C8010E949714DA
:102BB000870153CF10E000E050CFFB01DC0102C0E1
:102BC00001900D9241505040D8F70895FB01DC016F
:102BD00001900D920020E1F7089510E0C2E6D0E0E8
:102BE00004C0FE010E94E1132196C336D107C9F744
:042BF000F894FFCF87
:102BF40000007A44020000006503800000004000E9
:102C040014005400000020410000803FCDCCCC3D96
:102C14000AD7233C0000000022058F021E05000095
:102C2400000088035B039F04310354034103320310
:102C340000000000910595029F049E0446524551F0
:102C440020004D487A006E616E00696E66006F76F2
:102C54006600574156545950452000434E5459502C
:102C6400452000524553455454494E472E2E2E00BC
:102C740046524551203030312E303030204B487A86
:102C8400004F46460053494E450053515541524565
:102C940031005351554152453200545249414E4737
:102CA4004C4500484947480046494E45004C4F575B
:0A2CB400005052454349534500000B
:00000001FF
